:020000040000fa
:080000000001040000000000f3
:020000040000fa
:04000800dc01000017
:020000040000fa
:04000c00dc01000013
:020000040000fa
:04001000dc0100000f
:020000040000fa
:04001400dc0100000b
:020000040000fa
:04001800dc01000007
:020000040000fa
:04001c00dc01000003
:020000040000fa
:04002000dc010000ff
:020000040000fa
:04002400dc010000fb
:020000040000fa
:04002800dc010000f7
:020000040000fa
:04002c00dc010000f3
:020000040000fa
:04003000dc010000ef
:020000040000fa
:04003400c8010000ff
:020000040000fa
:04003800dc010000e7
:020000040000fa
:04003c00dc010000e3
:020000040000fa
:04004000dc010000df
:020000040000fa
:04004400dc010000db
:020000040000fa
:04004800dc010000d7
:020000040000fa
:04004c00dc010000d3
:020000040000fa
:04005000dc010000cf
:020000040000fa
:04005400dc010000cb
:020000040000fa
:04005800dc010000c7
:020000040000fa
:04005c00dc010000c3
:020000040000fa
:04006000dc010000bf
:020000040000fa
:04006400dc010000bb
:020000040000fa
:04006800dc010000b7
:020000040000fa
:04006c00dc010000b3
:020000040000fa
:04007000dc010000af
:020000040000fa
:04007400dc010000ab
:020000040000fa
:04007800dc010000a7
:020000040000fa
:04007c00dc010000a3
:020000040000fa
:04008000dc0100009f
:020000040000fa
:04008400dc0100009b
:020000040000fa
:04008800dc01000097
:020000040000fa
:04008c00dc01000093
:020000040000fa
:04009000dc0100008f
:020000040000fa
:04009400dc0100008b
:020000040000fa
:04009800dc01000087
:020000040000fa
:04009c00dc01000083
:020000040000fa
:0400a000dc0100007f
:020000040000fa
:0400a400dc0100007b
:020000040000fa
:0400a800dc01000077
:020000040000fa
:0400ac00dc01000073
:020000040000fa
:0400b000dc0100006f
:020000040000fa
:0400b400dc0100006b
:020000040000fa
:0400b800dc01000067
:020000040000fa
:0400bc00dc01000063
:020000040000fa
:0400c000dc0100005f
:020000040000fa
:0400c400dc0100005b
:020000040000fa
:0400c800dc01000057
:020000040000fa
:0400cc00dc01000053
:020000040000fa
:0400d000dc0100004f
:020000040000fa
:0400d400dc0100004b
:020000040000fa
:0400d800dc01000047
:020000040000fa
:04010800dc01000016
:020000040000fa
:04010c00dc01000012
:020000040000fa
:04011000dc0100000e
:020000040000fa
:04011400dc0100000a
:020000040000fa
:04011800dc01000006
:020000040000fa
:04011c00dc01000002
:020000040000fa
:04012000dc010000fe
:020000040000fa
:04012400dc010000fa
:020000040000fa
:04012800dc010000f6
:020000040000fa
:04012c00dc010000f2
:020000040000fa
:04013000dc010000ee
:020000040000fa
:04013400dc010000ea
:020000040000fa
:04013800dc010000e6
:020000040000fa
:04013c00dc010000e2
:020000040000fa
:04014000dc010000de
:020000040000fa
:04014400dc010000da
:020000040000fa
:04014800dc010000d6
:020000040000fa
:04014c00dc010000d2
:020000040000fa
:04015000dc010000ce
:020000040000fa
:04015400dc010000ca
:020000040000fa
:04015800dc010000c6
:020000040000fa
:04015c00dc010000c2
:020000040000fa
:04016000dc010000be
:020000040000fa
:04016400dc010000ba
:020000040000fa
:04016800dc010000b6
:020000040000fa
:04016c00dc010000b2
:020000040000fa
:04017000dc010000ae
:020000040000fa
:04017400dc010000aa
:020000040000fa
:04017800dc010000a6
:020000040000fa
:04017c00dc010000a2
:020000040000fa
:04018000dc0100009e
:020000040000fa
:04018400dc0100009a
:020000040000fa
:04018800dc01000096
:020000040000fa
:04018c00dc01000092
:020000040000fa
:04019000dc0100008e
:020000040000fa
:04019400dc0100008a
:020000040000fa
:04019800dc01000086
:020000040000fa
:04019c00dc01000082
:020000040000fa
:0401a000dc0100007e
:020000040000fa
:0401a400dc0100007a
:020000040000fa
:0401a800dc01000076
:020000040000fa
:0401ac00dc01000072
:020000040000fa
:0401b000dc0100006e
:020000040000fa
:0401b400dc0100006a
:020000040000fa
:0401b800dc01000066
:020000040000fa
:0401bc00dc01000062
:020000040000fa
:0401c000dc0100005e
:020000040000fa
:0401c400dc0100005a
:020000040000fa
:0401c800dc01000056
:020000040000fa
:0401cc00dc01000052
:020000040000fa
:0401d000dc0100004e
:020000040000fa
:0401d400dc0100004a
:020000040000fa
:0401d800dc01000046
:020000040000fa
:100200004f8820000ef720000e018800000000003b
:10021000000020000000e000020032000001200089
:100220002002880014000700650007000000e000bd
:1002300003003a00003520000100200002003700d2
:100240000000200001002000810f7000010032003a
:1002500014000700000020000000e000020032004f
:100260000000020000000000fc020200000000008c
:100270000040da000000fe004440a90060012000b8
:100280000000e0000300320000002000a001880010
:100290004440a800000006008a1f78008b1f7800e9
:1002a0000000060091018800800478000000eb0047
:1002b0001a003700e284440032a0b4009905ba0065
:1002c000e284440032a0b4009906ba00e2844400fb
:1002d00032a0b4000006eb00476fde00fd07b2005d
:1002e000636ce10003003a00ebff07000000eb0045
:1002f0000a003700606ce10004003a00005deb008a
:100300008b05e900fdff3e00040037006168e10055
:10031000010032000086eb000b00070019c7ba008d
:100320001905ba000e04e00003003a000a00e000dc
:10033000e0ff3a0000000600fe07b2009e018800c0
:100340008a047800f5ff3700395dba008b05e900b3
:100350000c003200295dba008b05e900080032006c
:100360000c00e00003003a00e284440032a0b40034
:10037000f5ff370019ddba008b05e900faff3a00f6
:100380008904e800e184440032a0b40000000600c3
:100390003400f800881f780008002000a8018800b9
:1003a0004f0478000000fa008460a9000080fa0081
:1003b0003400f900004006000040da000000fe00b2
:0403c0000000050034
:020000040000fa
:1003c400616c0000616e00007075000074690000cb
:1003d400746f0000006800006f6c00006120000072
:0c03e4006d7500006e6400006f000000ea
:020000040000fa
:1003f000811f7800831f78008001eb008001780066
:100400000000eb00b34078000104e0000700320078
:100410000100780032020200000000001c0202000d
:10042000000000000202040000000000cf0078007d
:10043000cf01780000000600d402a80000000000f0
:10044000d422a90000000000d442a800000000004f
:10045000c8e2b70000000000d442a900000000007c
:1004600000000600c6a2ef0000000000d402a900b0
:1004700000000000d422a80000000000d442a80020
:10048000c8e2af004002040000000000c622ef00f6
:10049000d422a9000000000000000600ba020200f9
:1004a0000000000000032000a40202000000000081
:1004b000ba0202000000000000032000a4020200b3
:1004c00000000000ba02020000000000000320004b
:1004d000a40202000000000032020200000000003e
:1004e00080032000a402020000000000320202008b
:1004f0000000000080002000a402020000000000b4
:10050000320202000000000010002000a4020200dd
:100510000000000032020200000000006000200025
:10052000a4020200000000003202020000000000ed
:10053000f0002000a40202000000000032020200cd
:100540000000000000000600d402a9000000000026
:10055000d422a90000000000d442a800000000003e
:10056000c8e2b70000000000d442a900000000006b
:1005700000000600801f78000000eb00104e2200f3
:100580000000e900feff3a004f007800000006007e
:10059000801f780030002000104488004f00780051
:1005a00000000600811f7800c000200031002000fc
:1005b00001004000cf00780000000600010040006c
:1005c00000000600811f7800821f78000001eb0008
:1005d000b04078000104e000030032000201e800ae
:1005e000e802040000000000020078004f017800db
:1005f000cf007800000006000c00fa00d01e280092
:100600000a000900305f7800be00b100b000b10000
:100610000b000700a1ff0700201e280074ff070041
:1006200090ff070070082000c7ff070000000000cf
:10063000feff37000000fa000080fa00000006000c
:100640000000fa00c622ef0000000000c822ef0000
:1006500000000000ca22ef0000000000de22ef00d0
:1006600000000000e022ef0000000000e222ef00a6
:1006700000000000d222ef0000000000d422ef00b2
:1006800000000000d622ef00000000000080eb0018
:1006900040158800000000000080fa0000000600fd
:020000040000fa
:1006a000000800008000000000000000800f000033
:1006b000800000000000000080080000040000002e
:0806c000000000000000000032
:020000040000fa
:0406c800000000002e
:020000040000fa
:0200000401f009
:04000000e0b9000063
:020000040000fa
:0200000401f009
:04000400ff7f00007a
:020000040000fa
:0200000401f009
:04000800feff0000f7
:020000040000fa
:0200000401f009
:04001400ffff0000ea
:00000001FF
